:020000040800F2
:20000000005000202D1F0008DD1B0008DF1B0008E11B0008E31B0008E51B00080000000008
:20002000000000000000000000000000E71B0008E91B000800000000EB1B0008ED1B00088C
:20004000751F0008751F0008751F0008751F0008751F0008751F0008751F0008F51B000844
:20006000751F0008751F0008751F0008751F0008751F0008751F0008751F0008751F0008A0
:20008000751F0008751F0008751F0008751F0008751F0008751F0008751F0008751F000880
:2000A000751F0008751F0008751F0008751F0008751F0008051C0008751F0008751F0008D3
:2000C000751F0008751F0008751F0008751F0008751F0008751F0008751F0008751F000840
:2000E000751F0008751F0008751F000800000000000000000000000000000000000000002C
:2001000000000000000000005FF808F110B5054C237833B9044B13B10448AFF3008001234D
:20012000237010BD7000002000000000F027000808B5034B1BB103490348AFF3008008BD5B
:200140000000000074000020F0270008034613F8012B002AFBD1181A0138704710B5044645
:200160000E4B18784FF47A73B3FBF0F30C4A1068B0FBF3F000F08EF868B90F2C01D90120AC
:200180000AE0002221464FF0FF3000F041F8034B5C60002000E0012010BD00BF000000207E
:2001A0000800002008B5074A136843F010031360032000F01BF80020FFF7D0FF01F0ECFCF1
:2001C000002008BD00200240034A1168034B1B780B441360704700BFA80000200000002011
:2001E000014B1868704700BFA8000020074AD36823F4E0631B041B0C000200F4E060184338
:2002000040F0BF6040F40030D060704700ED00E030B4174BDB68C3F30223C3F10704042C24
:2002200028BF04241D1D062D18D9033B4FF0FF3505FA04F421EA0401994005FA03F322EABF
:200240000303194300280BDB0901C9B200F1604000F5614080F8001330BC70470023E5E765
:2002600000F00F000901C9B2024B1954F4E700BF00ED00E014ED00E0002807DB00F01F02DD
:20028000400901239340024A42F82030704700BF00E100E00138B0F1807F0AD2064B586053
:2002A000064AF02182F823100020986007221A6070470120704700BF10E000E000ED00E08A
:2002C000F0B482B000263246A2E0002D5AD0012D00D1CE68FF2B69D88446FF2B69D8950067
:2002E000DCF800400F27AF4024EA070406FA05F52C43CCF800404C6814F0805F00F08780B1
:200300005F4CA56945F00105A561A46904F001040194019C9508AF1C5A4C54F8274002F0F8
:200320000307BF004FF00F0C0CFA07FC24EA0C0C554CA04243D004F58064A04200F0818025
:2003400004F58064A0427ED004F58064A04234D0042435E04D4FBD4214D00BD94C4FBD4293
:2003600010D007F58037BD420CD0A7F58017BD42B0D107E0A7F58017BD4203D007F58037BD
:20038000BD42A7D18D687DB1012D08D044610826A0E7CE6808369DE7CE680C369AE704610D
:2003A000082697E7002695E7042693E700F1040C93E7A2F10805AD0092E7032400E00024DF
:2003C000BC4044EA0C0402352E4F47F825404C6814F4803F39D02F4D2C681C432C604C6858
:2003E00014F4003F37D02B4D6C681C436C604C6814F4801F35D0274DAC681C43AC604C6831
:2004000014F4001F33D0234DEC682343EB6001320B6833FA02F430D00124944023409C423A
:20042000F5D14D68122DB7D094D8022DB1D07FF64CAF032DB6D0112D7FF44CAFCE6804361D
:2004400048E70124BCE70224BAE7124D2C6824EA03042C60C3E70F4D6C6824EA03046C608F
:20046000C5E70C4DAC6824EA0304AC60C7E7094DEC6824EA0303EB60C9E702B0F0BC7047C6
:2004800000100240000001400008014000002110000031100004014012B9090401617047D8
:2004A000016170477047000008B5054B5B69034200D108BD024B5861FFF7F4FFF9E700BF32
:2004C0000004014082B0084B1B68084AA2FB03235B0A00FB03F0019000BF019B5A1E019270
:2004E000002BF9D102B0704708000020D34D6210002800F0F58170B582B00446036813F047
:20050000010F2CD0AB4B5B6803F00C03042B1DD0A84B5B6803F00C03082B12D06368B3F5B8
:20052000803F41D0002B55D103F1804303F504331A6822F480321A601A6822F480221A603C
:2005400037E09C4B5B6813F4803FE7D0994B1B6813F4003F03D06368002B00F0C381236828
:2005600013F0020F76D0934B5B6813F00C0F5FD0904B5B6803F00C03082B54D02369002B85
:2005800000F08A808C4B01221A60FFF729FE0546884B1B6813F0020F75D1FFF721FE401B65
:2005A0000228F5D90320A0E1824A136843F480331360636843B3FFF713FE05467D4B1B689D
:2005C00013F4003FCBD1FFF70BFE401B6428F5D903208AE1B3F5A02F09D0764B1A6822F44E
:2005E00080321A601A6822F480221A60E1E703F18043A3F53C331A6842F480221A601A683F
:2006000042F480321A60D4E7FFF7EAFD0546694B1B6813F4003FA2D0FFF7E2FD401B6428EA
:20062000F5D9032061E1634B5B6813F4803FA5D1604B1B6813F0020F04D02369012B01D03B
:20064000012052E15B4A136823F0F803616943EAC1031360236813F0080F32D0A369002B0C
:200660005BD0564B01221A60FFF7BAFD0546514B5B6A13F0020F21D1FFF7B2FD401B022888
:20068000F5D9032031E14B4A136823F0F803616943EAC1031360DDE7474B00221A60FFF723
:2006A0009FFD0546434B1B6813F0020FD2D0FFF797FD401B0228F5D9032016E10120FFF77E
:2006C00001FF236813F0040F00F09880394BDB6913F0805F33D1374BDA6942F08052DA61BF
:2006E000DB6903F080530193019B0125344B1B6813F4807F25D0E368012B36D0002B4CD1D8
:2007000003F1804303F504331A6A22F001021A621A6A22F004021A622CE0284B00221A60AB
:20072000FFF75EFD0546234B5B6A13F0020FC8D0FFF756FD401B0228F5D90320D5E00025A5
:20074000D4E71F4A136843F480731360FFF748FD06461B4B1B6813F4807FCCD1FFF740FD17
:20076000801B6428F5D90320BFE0124A136A43F001031362E3687BB3FFF732FD06460D4BFB
:200780001B6A13F0020F38D1FFF72AFD801B41F288339842F3D90320A7E0052B12D0054B5F
:2007A0001A6A22F001021A621A6A22F004021A62E0E700BF001002400000424280044242A8
:2007C000007000404C4B1A6A42F004021A621A6A42F001021A62CDE7FFF702FD0646464BDF
:2007E0001B6A13F0020F08D0FFF7FAFC801B41F288339842F3D9032077E0E5B9E369002BDE
:2008000072D03D4A526802F00C02082A56D0022B17D03A4B00221A60FFF7E2FC0446364B29
:200820001B6813F0007F47D0FFF7DAFC001B0228F5D9032059E0304AD36923F08053D36191
:20084000DCE72E4B00221A60FFF7CAFC05462A4B1B6813F0007F06D0FFF7C2FC401B022830
:20086000F5D9032041E0236AB3F5803F1AD022494B6823F47413226A606A024313434B6030
:200880001E4B01221A60FFF7ABFC04461A4B1B6813F0007F0ED1FFF7A3FC001B0228F5D97A
:2008A000032022E0144A536823F40033A1680B435360DCE7002018E0002016E0012B16D0A3
:2008C0000D4B5B6803F48031226A914201D001200BE003F47013626A93420AD0012004E01F
:2008E00001207047012000E0002002B070BD0120FBE70020F9E700BF001002406000424228
:2009000010B487B0164C94E80F000DF1180C0CE90F00238AADF80430124B5B6803F00C0222
:20092000082A1AD1C3F38342624412F8102C13F4803F05D10C4800FB02F007B010BC70471C
:20094000084B5B68C3F34043634413F8143C074800FB02F0B0FBF3F0EFE70448EDE700BFC7
:20096000082800080010024000093D0000127A00002800F0A38070B50446524B1B6803F05E
:2009800007038B420CD24F4A136823F007030B431360136803F007038B4201D0012070BD4C
:2009A000236813F0020F17D013F0040F04D0464A536843F4E0635360236813F0080F04D0D6
:2009C000414A536843F4605353603F4A536823F0F003A068034353600D46236813F0010FF8
:2009E00031D06368012B20D0022B25D0364A126812F0020F64D034494A6822F00302134310
:200A00004B60FFF7EDFB06462F4B5B6803F00C036268B3EB820F16D0FFF7E2FB801B41F242
:200A200088339842F0D90320B9E7274A126812F4003FE0D10120B2E7234A126812F0007F92
:200A4000D9D10120ABE71F4B1B6803F00703AB420CD91C4A136823F007032B431360136823
:200A600003F00703AB4201D0012098E7236813F0040F06D0144A536823F4E063E1680B439A
:200A80005360236813F0080F07D00F4A536823F46053216943EAC1035360FFF731FF0A4BA0
:200AA0005B68C3F30313094AD35CD840084B1860084B1868FFF752FB002070E701207047DD
:200AC00001206CE700200240001002405C2800080800002004000020014B1868704700BFD4
:200AE0000800002008B5FFF7F7FF044B5B68C3F30223034AD35CD84008BD00BF00100240CE
:200B00006C28000808B5FFF7E7FF044B5B68C3F3C223034AD35CD84008BD00BF0010024089
:200B20006C28000810B4036A046A24F001040462846924F0F00444EA021223F00A030B4356
:200B40008261036210BC704710B4036A23F0100303628469036A24F4704444EA023223F073
:200B6000A00343EA01138261036210BC7047836823F07003194341F0070181607047022303
:200B800080F83D300268936803F00703062B03D0136843F001031360012380F83D300020BC
:200BA00070470268D36843F00103D3600268936803F00703062B03D0136843F001031360E4
:200BC000002070477047704770477047704710B5044603681A6912F0020F11D0DA6812F076
:200BE000020F0DD06FF002021A610123037703689B6913F0030F70D0FFF7E6FF002323772F
:200C000023681A6912F0040F12D0DA6812F0040F0ED06FF004021A610223237723689B696C
:200C200013F4407F5FD02046FFF7CEFF0023237723681A6912F0080F12D0DA6812F0080F75
:200C40000ED06FF008021A61042323772368DB6913F0030F4ED02046FFF7B6FF0023237741
:200C600023681A6912F0100F12D0DA6812F0100F0ED06FF010021A61082323772368DB69A2
:200C800013F4407F3DD02046FFF79EFF0023237723681A6912F0010F03D0DA6812F0010F84
:200CA00036D123681A6912F0800F03D0DA6812F0800F34D123681A6912F0400F03D0DA686F
:200CC00012F0400F32D123681A6912F0200F03D0DA6812F0200F30D110BDFFF774FF20469E
:200CE000FFF773FF8AE72046FFF76DFF2046FFF76CFF9BE72046FFF766FF2046FFF765FF89
:200D0000ACE72046FFF75FFF2046FFF75EFFBDE76FF001021A612046FFF754FFC1E76FF096
:200D200080021A61204600F0FEF8C3E76FF040021A612046FFF74AFFC5E76FF020021A6157
:200D4000204600F0EFF8C7E703681B4A90420AD0B0F1804F07D0A2F59432904203D002F5EC
:200D60008062904203D123F070034A681343124A90420AD0B0F1804F07D0A2F594329042DF
:200D800003D002F58062904203D123F44073CA68134323F080034A69134303608B68C36295
:200DA0000B688362044B984202D00123436170470B690363F9E700BF002C0140A8B110B55D
:200DC000044690F83D305BB1022384F83D30211D2068FFF7B9FF012384F83D30002010BD4C
:200DE00080F83C3000F0D0FFEEE70120704710B4846824F47F4442EA03230B43234383602F
:200E000010BC704790F83C30012B66D010B50446012380F83C30022380F83D300268936873
:200E200023F47F4323F0770393600B68402B4AD013D9602B3DD01ED9702B28D0B3F5005F4C
:200E400030D1CB684A6889680068FFF7D0FF2268936843F48043936024E0102B06D004D92A
:200E6000202B03D0302B01D01CE0DBB919462068FFF77DFE16E0502B14D1CA68496800689F
:200E8000FFF750FE50212068FFF771FE0AE0CB684A6889680068FFF7AAFF2268936843F031
:200EA00077039360012384F83D30002084F83C0010BDCA6849680068FFF746FE6021206885
:200EC000FFF755FEEEE7CA6849680068FFF72AFE40212068FFF74BFEE4E70220704790F837
:200EE0003C30012B1CD070B4012680F83C60022380F83D3002685568936825F070050C68E5
:200F00002C4323F080054B682B4354600268936080F83D60002380F83C30184670BC70473B
:200F2000022070477047704738B504460268136923F44053C1680B4313618368026913430C
:200F400042691A430168CB6823F4B05323F00C031343CB600268536923F4407381690B4308
:200F600053610268214B9A421FD0FFF7BBFD00EB800000EB800063689B00B0FBF3F01C4D3B
:200F8000A5FB00325109642202FB110213013233A5FB03235B0903F0F00202EB011203F014
:200FA0000F03216813448B6038BDFFF7ABFD00EB800000EB800063689B00B0FBF3F00C4D9E
:200FC000A5FB00325109642202FB110213013233A5FB03235B0903F0F00202EB011203F0D4
:200FE0000F03216813448B60DEE700BF003801401F85EB512DE9F04105460F461646984616
:20100000069C2B681B6837EA03030CBF01230023B3421DD1B4F1FF3FF3D02CB1FFF7E0F8AB
:20102000A0EB0800A042ECD92A68D36823F4D073D3602A68536923F001035361202385F843
:20104000393085F83A30002385F83830032000E00020BDE8F08158B310B5044690F83930F4
:201060000BB3242384F839302268D36823F40053D3602046FFF758FF2268136923F4904381
:2010800013612268536923F02A0353612268D36843F40053D3600020E063202384F8393095
:2010A00084F83A3010BD80F8383000F0D1FED8E7012070472DE9F04182B01E4690F8393079
:2010C000DBB2202B55D104460D469046002955D0002A55D090F83830012B53D0012380F827
:2010E00038300023C363212380F83930FFF778F80746A4F82480A4F8268010E000963B46DE
:20110000002280212046FFF775FF00283CD12B882268C3F3080353602369C3B90235E38CA8
:201120009BB2B3B1E38C013B9BB2E384A368B3F5805FE3D000963B46002280212046FFF724
:2011400059FF18BB2A7823685A600135E7E70135E5E700963B46002240212046FFF74AFF38
:201160000346A8B9202284F83920002284F8382000E00223184602B0BDE8F0810123F9E789
:201180000123F7E70223F5E70323F3E70323F1E70323EFE7014B1870704700BF8C0000205C
:2011A00010B40D4A53780133DBB25370632B02D9134600225A70084B5878084A546A084993
:2011C00041F82040002151625A6801325A6001221A7210BC704700BF8C000020000800400E
:2011E000AC00002010B59CB00024009401231A46114903A800F0EAFE03A8FEF7A7FF64232C
:2012000082B203A90D48FFF755FF234605E00C4A40F2772142F823100133632BF7DD094C89
:201220002046FFF7ACFC2046FFF7BBFC0648FFF7A6FC1CB010BD00BF74280008BC020020D7
:20124000AC0000207C0200203C02002038B50546164C012210212046FFF71EF90122202101
:201260002046FFF719F9012240212046FFF714F9032D08D8DFE805F002080E1400221021C8
:201280000A48FFF709F938BD002220210748FFF703F9F8E7002240210448FFF7FDF8F2E7F9
:2012A000002220210148FFF7F7F8ECE700080140024B53F82020024B5A6170471C2800089E
:2012C00000080140024B53F82020024B1A6170471C28000800080140024B53F82020024BB4
:2012E0005A6170471C280008000C0140024B53F82020024B1A6170471C280008000C0140F3
:20130000024B53F82020024B5A6170471C28000800100140024B53F82020024B1A61704742
:201320001C2800080010014008B50C20FFF7CAFF0B20FFF7C7FF0820FFF7C4FF0F20FFF77B
:20134000D5FF0E20FFF7D2FF0D20FFF7CFFF0C20FFF7C2FF08BD08B50C20FFF7A9FF0B2079
:20136000FFF7B0FF0820FFF7ADFF0F20FFF7B4FF0E20FFF7B1FF0D20FFF7AEFF0C20FFF760
:20138000ABFF08BD08B50C20FFF79CFF0B20FFF799FF0820FFF78CFF0F20FFF7A7FF0E2009
:2013A000FFF7A4FF0D20FFF797FF0C20FFF79EFF08BD08B50C20FFF785FF0B20FFF782FF52
:2013C0000820FFF77FFF0F20FFF790FF0E20FFF783FF0D20FFF780FF0C20FFF787FF08BD08
:2013E00008B50C20FFF764FF0B20FFF76BFF0820FFF768FF0F20FFF76FFF0E20FFF76CFF79
:201400000D20FFF773FF0C20FFF770FF08BD08B50C20FFF757FF0B20FFF74AFF0820FFF724
:2014200051FF0F20FFF762FF0E20FFF755FF0D20FFF75CFF0C20FFF759FF08BD08B50C20B8
:20144000FFF740FF0B20FFF733FF0820FFF73AFF0F20FFF74BFF0E20FFF748FF0D20FFF7B0
:2014600045FF0C20FFF742FF08BD08B50C20FFF729FF0B20FFF726FF0820FFF723FF0F2044
:20148000FFF72AFF0E20FFF727FF0D20FFF724FF0C20FFF721FF08BD08B50C20FFF712FFA6
:2014A0000B20FFF70FFF0820FFF70CFF0F20FFF71DFF0E20FFF71AFF0D20FFF717FF0C20F1
:2014C000FFF714FF08BD08B50C20FFF7FBFE0B20FFF7F8FE0820FFF7F5FE0F20FFF706FF14
:2014E0000E20FFF7F9FE0D20FFF700FF0C20FFF7FDFE08BD08B50C20FFF7E4FE0B20FFF7EB
:20150000E1FE0820FFF7DEFE0F20FFF7E5FE0E20FFF7ECFE0D20FFF7E9FE0C20FFF7E6FECC
:2015200008BD08B50C20FFF7C3FE0B20FFF7C0FE0820FFF7C7FE0F20FFF7D8FE0E20FFF765
:20154000D5FE0D20FFF7D2FE0C20FFF7CFFE08BD08B50C20FFF7B6FE0B20FFF7A9FE08208E
:20156000FFF7A6FE0F20FFF7C1FE0E20FFF7BEFE0D20FFF7BBFE0C20FFF7AEFE08BD08B5E1
:201580000C20FFF795FE0B20FFF79CFE0820FFF799FE0F20FFF7AAFE0E20FFF7A7FE0D2063
:2015A000FFF79AFE0C20FFF7A1FE08BD08B50C20FFF788FE0B20FFF77BFE0820FFF778FE84
:2015C0000F20FFF793FE0E20FFF790FE0D20FFF78DFE0C20FFF78AFE08BD08B50C20FFF7A7
:2015E00071FE0B20FFF764FE0820FFF761FE0F20FFF772FE0E20FFF779FE0D20FFF776FEB5
:201600000C20FFF773FE08BD08B50C20FFF750FE0B20FFF74DFE0820FFF74AFE0F20FFF74E
:201620005BFE0E20FFF758FE0D20FFF755FE0C20FFF75CFE08BD08B50D20FFF76BFE0920AE
:20164000FFF754FE0820FFF751FE0520FFF74EFE0120FFF737FE0220FFF734FE0320FFF7BF
:2016600027FE08BD08B50D20FFF74AFE0920FFF73DFE0820FFF73AFE0520FFF72DFE012041
:20168000FFF716FE0220FFF713FE0320FFF710FE08BD08B50D20FFF73DFE0920FFF726FECD
:2016A0000820FFF719FE0520FFF720FE0120FFF709FE0220FFF7FCFD0320FFF703FE08BDAE
:2016C00008B50D20FFF726FE0920FFF70FFE0820FFF70CFE0520FFF709FE0120FFF7E8FD94
:2016E0000220FFF7E5FD0320FFF7ECFD08BD08B50D20FFF705FE0920FFF7F8FD0820FFF714
:20170000F5FD0520FFF7E8FD0120FFF7D1FD0220FFF7D8FD0320FFF7D5FD08BD08B50D206B
:20172000FFF7F8FD0920FFF7D7FD0820FFF7DEFD0520FFF7DBFD0120FFF7BAFD0220FFF7F9
:20174000C1FD0320FFF7BEFD08BD08B50D20FFF7E1FD0920FFF7C0FD0820FFF7C7FD052091
:20176000FFF7C4FD0120FFF7ADFD0220FFF7AAFD0320FFF7A7FD08BD08B50D20FFF7CAFD09
:201780000920FFF7B3FD0820FFF7B0FD0520FFF7A3FD0120FFF78CFD0220FFF789FD032093
:2017A000FFF786FD08BD08B50D20FFF7B3FD0920FFF79CFD0820FFF799FD0520FFF796FD41
:2017C0000120FFF77FFD0220FFF77CFD0320FFF779FD08BD08B50D20FFF79CFD0920FFF7F9
:2017E00085FD0820FFF782FD0520FFF77FFD0120FFF75EFD0220FFF765FD0320FFF762FDCF
:2018000008BD08B50D20FFF785FD0920FFF764FD0820FFF761FD0520FFF75EFD0120FFF718
:2018200051FD0220FFF74EFD0320FFF74BFD08BD38B54B4CA4FB0034E40804EB84035D00BB
:20184000451BEDB214F0FF0436D0012C37D0022C38D0032C39D0042C3AD0052C3BD0062C32
:201860003CD0072C3DD0082C3ED0092C3FD00A2C40D00B2C41D00C2C42D00D2C43D00E2C38
:2018800044D00F2C45D00F2C46D8002D47D0012D48D0022D49D0032D4AD0042D4BD0052DF1
:2018A0004CD0062D4DD0072D4ED0082D4FD0092D50D0092D51D838BDFFF736FDC5E7FFF7A1
:2018C0004AFDC4E7FFF75EFDC3E7FFF772FDC2E7FFF786FDC1E7FFF79AFDC0E7FFF7AEFD17
:2018E000BFE7FFF7C2FDBEE7FFF7D6FDBDE7FFF7EAFDBCE7FFF7FEFDBBE7FFF712FEBAE7C1
:20190000FFF726FEB9E7FFF73AFEB8E7FFF74EFEB7E7FFF762FEB6E7FFF776FEB5E7FFF771
:201920008AFEB4E7FFF79EFEB3E7FFF7B2FEB2E7FFF7C6FEB1E7FFF7DAFEB0E7FFF7EEFE80
:20194000AFE7FFF702FFAEE7FFF716FFADE7FFF72AFFACE7FFF73EFFABE7FFF752FFAAE777
:20196000CDCCCCCC30B59DB0234B1B78012B06D0214B1B7A002B3DD00023194617E01E4CE5
:2019800062681E4903A800F021FB03A8FEF7DEFB642382B203A91A48FFF78CFB00236360BA
:2019A0002370E5E7174A52F8232011440133632BF8DD154CB4FBF1F40F4D6A78114B53F814
:2019C000223001940091114903A800F0FFFA03A8FEF7BCFB642382B203A90948FFF76AFB37
:2019E0002046FFF725FF687800F00300FFF72EFC00232B721DB030BD8C000020C828000856
:201A0000BC020020AC000020808D5B00EC2800082DE9F04389B0002404940594069407948C
:201A2000394B9A6942F010029A619A6902F010020092009A9A6942F020029A619A6902F066
:201A400020020192019A9A6942F004029A619A6902F004020292029A9A6942F008029A619B
:201A60009B6903F008030393039BDFF8A89022464FF400514846FEF70FFDDFF89C8022463B
:201A800041F68E114046FEF707FD012270214046FEF702FD1D4F22464FF220313846FEF7EA
:201AA000FBFC4FF4005304930126059606940225079504A94846FEF703FC41F6FE130493D5
:201AC00005960694079504A94046FEF7F9FB04950F4B0593069604A93846FEF7F1FB4FF2A5
:201AE0002033049305960694079504A93846FEF7E7FB224621460720FEF78AFB0720FEF79D
:201B0000BBFB09B0BDE8F08300100240000C014000002110001001400008014030B591B0AE
:201B20000024089409940B940C9401940294039404940594012206924FF4803307930A922F
:201B400002250D950E934FF4C0130F9306A8FEF7CFFC0F230193029503944FF48063049344
:201B60000594294601A8FEF703FF11B030BD08B5FEF718FBFFF7D2FFFFF74AFF00F0CAF892
:201B800000F032F900F04AF900F08AF8FFF72AFBFFF7E8FEFCE7704782B00E4B9A6942F034
:201BA00001029A619A6902F001020092009ADA6942F08052DA61DB6903F080530193019B47
:201BC000054A536823F0E06343F00073536002B0704700BF00100240000001407047FEE7F5
:201BE000FEE7FEE7FEE770477047704708B5FEF7EBFA08BD08B5FFF7D3FA0220FEF754FCCE
:201C000008BD000008B50120FFF7C4FA0148FEF7DEFF08BD7C02002008B503460B4A12681A
:201C200042B10A4A106803446A46934206D8074A136008BD054A06491160F2E700F09CF945
:201C40000C2303604FF0FF30F3E700BF98000020400300200F4B1A6842F001021A60596884
:201C60000D4A0A405A601A6822F0847222F480321A601A6822F480221A605A6822F4FE02B1
:201C80005A604FF41F029A60044B4FF000629A60704700BF001002400000FFF800ED00E0B6
:201CA00000B587B000230293039304930593009301931648164A02604FF6FF124260836099
:201CC0004EF65F22C26003618361FFF777F898B906A94FF4805341F8103D0C48FFF792F800
:201CE00068B900230093019369460848FFF7F7F840B907B05DF804FBFFF74DFFE8E7FFF78A
:201D00004AFFEEE7FFF747FFF3E700BF7C0200200004004000B587B000230293039304931D
:201D20000593009301931648164A02604FF6FF124260836042F20F72C26003618361FFF7D4
:201D40003DF898B906A94FF4805341F8103D0C48FFF758F868B900230093019369460848AE
:201D6000FFF7BDF840B907B05DF804FBFFF713FFE8E7FFF710FFEEE7FFF70DFFF3E700BF68
:201D80003C0200200008004000B583B00368134A934205D0124A934215D003B05DF804FB26
:201DA000104BDA6942F00202DA61DB6903F002030093009B002211461D20FEF729FA1D209F
:201DC000FEF75AFAE9E7074BDA6942F00402DA61DB6903F004030193019BDEE7000400406B
:201DE000000800400010024008B50A480A4B03604FF4E133436000238360C36003610C22CD
:201E000042618361C361FFF726F900B908BDFFF7C2FEFBE7FC0200200038014008B50A4846
:201E20000A4B03604FF4E133436000238360C36003610C2242618361C361FFF70CF900B9D6
:201E400008BDFFF7A8FEFBE7BC0200200048004010B588B0002304930593069307930368EC
:201E60002D4A934204D02D4A93422BD008B010BD2B4B9A6942F480429A619A6902F480424F
:201E80000092009A9A6942F004029A619B6903F004030193019B4FF40073049302230593A8
:201EA000032307931F4C04A92046FEF709FA4FF48063049300230593069304A92046FEF7D3
:201EC000FFF9D3E7164BDA6942F48022DA61DA6902F480220292029A9A6942F008029A6154
:201EE0009B6903F008030393039B4FF48063049302230593032307930B4C04A92046FEF713
:201F0000DFF94FF40063049300230593069304A92046FEF7D5F9A9E70038014000480040F1
:201F20000010024000080140000C0140002103E00B4B5B58435004310A480B4B42189A4206
:201F4000F6D30A4A02E0002342F8043B084B9A42F9D3FFF77FFE00F015F8FFF708FE7047C8
:201F60004829000800000020700000207000002040030020FEE70000014B1868704700BF1E
:201F80000C00002070B500250C4E0D4CA41BA410A54209D100F02CFC00250A4E0A4CA41B3A
:201FA000A410A54205D170BD56F8253098470135EEE756F8253098470135F2E740290008F4
:201FC0004029000840290008442900080EB46FF0004100B59CB01DAB02900690079104912A
:201FE0000848094953F8042B0591006802A9019300F066F80022029B1A701CB05DF804EBE1
:020000040800F2
:2020000003B070470C0000200802FFFF2DE9F0478E6882469E420C469046994637D88A890E
:2020200012F4906F31D00223256809696F1A656905EB450595FBF3F509F101033B449D4211
:2020400038BF1D46530530D5294600F037FB064650B90C234FF0FF30CAF80030A38943F0F5
:202060004003A381BDE8F0873A46216900F0B6FAA38923F4906343F08003A38126613E441A
:2020800026604E466561ED1BA5604E4500D94E4632464146206800F0ACFAA36800209B1B55
:2020A000A36023681E442660DCE72A4600F060FB06460028E2D12169504600F0B3FAC8E799
:2020C0002DE9F04F1D468B899DB01F0680460C4616460FD50B696BB9402100F0EFFA206018
:2020E000206128B90C23C8F800304FF0FF30C8E0402363610023099320238DF829303023EF
:202100004FF0010B8DF82A30039537463D4615F8013B0BB1252B3ED1B7EB060A0BD0534673
:20212000324621464046FFF771FF013000F0A480099B534409933B78002B00F09D800023AA
:202140004FF0FF32CDE90523049307938DF853301A932F46052217F8011B504800F030FAD2
:20216000049BD0B9D90644BF20228DF853201A0744BF2B228DF853202A782A2A15D02F4662
:2021800000200A25079A394611F8013B303B092B4DD9B8B10FE02F46B8E7404A3D46801AB3
:2021A0000BFA00F018430490D3E7039A111D12680391002A01DB079204E0524243F0020359
:2021C000079204933B782E2B0CD17B782A2B33D1039B02371A1D1B680392002BB8BF4FF093
:2021E000FF3305932E4D03223978284600F0E8F938B14023401B03FA00F0049B01370343D4
:2022000004933978062227487E1C8DF8281000F0D7F9002838D0244B13BB039B073323F070
:20222000070308330393099B4B4409936DE705FB023201200F46A6E700230A251946013780
:202240000593384610F8012B303A092A03D9002BC8D00591C6E705FB012101230746F0E74B
:2022600003AB00932246114B04A94046AFF30080B0F1FF3F8146D6D1A3895B063FF535AF12
:2022800009981DB0BDE8F08F03AB00932246074B04A9404600F082F8EAE700BF0C29000847
:2022A0001229000816290008000000000D2000082DE9F04791461F468A680B69064693424F
:2022C000B8BF1346C9F8003091F843200C46DDF8208012B10133C9F800302368990642BF77
:2022E000D9F800300233C9F80030256815F0060507D104F1190AE368D9F800209B1AAB424C
:2023000029DC94F843302268003318BF012392062ED404F1430239463046C047013021D00F
:202320002368E56803F00603042B18BF0025D9F800204FF0000908BFAD1AA368226908BF7A
:2023400025EAE5759342C4BF9B1AED181A344D451AD1002008E00123524639463046C04777
:20236000013003D14FF0FF30BDE8F0870135C2E73020E11881F843005A1C94F8451022442D
:20238000023382F84310C4E70123224639463046C0470130E6D009F10109D8E72DE9F04315
:2023A00001F1430C0C46097E85B06E291746064698460C9A00F0B38022D8632936D00AD879
:2023C000002900F0B980582900F0838004F1420584F8421032E0642901D06929F6D12068DC
:2023E0001368050603F104012AD51B681160002B03DA2D225B4284F843206F480A2239E09C
:20240000732900F09D8008D86F2920D07029DDD1236843F02003236003E0752917D07829F7
:20242000D4D17823654884F8453055E0136804F14205191D1B68116084F8423001238CE02A
:202440001B6810F0400F116018BF1BB2CFE713682568181D1060280601D51B6802E068065B
:20246000FBD51B886F2914BF0A2208225248002184F843106568002DA560C0F2958021684F
:2024800021F004012160002B3DD1002D40F08E806546082A0BD12368DB0708D523696268A8
:2024A0009A42DEBF302305F8013C05F1FF35ACEB05032361CDF800803B4603AA2146304679
:2024C000FFF7F6FE01304DD14FF0FF3005B0BDE8F083394884F84510136821681D1D1B6875
:2024E00015600A060BD5CA0744BF41F0200121601BB9226822F0200222601022B7E74D0699
:2025000048BF9BB2EFE76546B3FBF2F102FB1133C35C05F8013D0B460029F5D1B9E713685F
:202520002568181D6169106028061B6801D5196002E06A06FBD51980002365462361B9E7F2
:202540001368191D11601D6862680021284600F037F808B1401B606063682361002384F89A
:202560004330A7E723692A4639463046C0470130AAD023689B0713D4E068039B9842B8BF6C
:202580001846A3E701234A4639463046C04701309AD00135E368039A9B1AAB42F2DCEBE7A8
:2025A000002504F11909F5E7002BACD1037804F1420584F842306CE71D2900082E290008B6
:2025C00010B5C9B202449042034601D1002303E01C7801308C42F6D1184610BD10B5431ED7
:2025E0000A44914200D110BD11F8014B03F8014FF7E7884210B501EB020307D8421E994204
:202600000AD011F8014B02F8014FF8E78342F5D98118D21AD34200D110BD13F8014D01F845
:20262000014DF7E738B50546002943D051F8043C0C1F002BB8BFE41800F0D0F81E4A13680D
:20264000104633B9636014602846BDE8384000F0C6B8A3420BD921686218934201BF1A6825
:202660005B685218226063600460EDE713465A680AB1A242FAD919685818A0420BD12068EC
:202680000144581882421960DED110685268014419605A60D8E702D90C232B60D4E7206858
:2026A00021188A4201BF116852680918216062605C60C9E738BD00BFA000002070B5CD1CD0
:2026C00025F0030508350C2D38BF0C25002D064601DBA94203D90C233360002070BD00F024
:2026E0007DF8214A1468214691B9204C23681BB9304600F063F820602946304600F05EF896
:20270000431C24D10C233046336000F068F8E4E70B685B1B18D40B2B0FD90B60CC18CD50B3
:20272000304600F05CF804F10B00231D20F00700C31AD3D05A42E250D0E74B688C4216BF2D
:20274000636013600C46EBE70C464968CCE7C41C24F00304A04205D0211A304600F02EF8F0
:202760000130CFD02560DBE7A0000020A4000020F8B5074614460E4621B9BDE8F840114608
:20278000FFF79CBF22B9FFF74DFF25462846F8BD00F026F8A0420FD221463846FFF78EFF04
:2027A00005460028F2D031462246FFF717FF31463846FFF737FFE9E73546E7E738B50023AF
:2027C000054C054608462360FFF726FA431C02D1236803B12B6038BD3C03002070477047B8
:2027E00051F8043C181F002BBCBF0B58C0187047F8B500BFF8BC08BC9E467047F8B500BF96
:20280000F8BC08BC9E46704702030405060708090A0B0C0D0E0F101001020000010000000A
:20282000020000000400000008000000100000002000000040000000800000000001000099
:2028400000020000000400000008000000100000002000000040000000800000000000007A
:2028600000000000010203040607080900000000010203040D0A20446F73696D6574657243
:202880002053424D313920323032302D6D617263682D3138207625642E25642E2564200D60
:2028A0000A09554152543320666F72206465627567206F6E207370656564203131353230C1
:2028C000300D0A0D0A0000000909090954494D332036305365632E20486172645F434E54A7
:2028E0003D20256420696D703B0D0A0025642920092530346420092564200920434E543A58
:202900002025303364200D0A00000000232D302B2000686C4C0065666745464700303132F2
:20292000333435363738394142434445460030313233343536373839616263646566000026
:20294000310100080D01000801000000100000000024F400100000200000000000000000CE
:20296000000000000000000000000000000000000000000000000000000000000000000057
:20298000000000000000000000000000000000000000000000000000000000000000000037
:2029A000000000000000000000000000000000000000000000000000FFFFFFFFFFFFFFFF1F
:2029C000FFFFFFFFFFFFFFFFFFFFFFFFFFFFFFFFFFFFFFFFFFFFFFFFFFFFFFFFFFFFFFFF17
:2029E000FFFFFFFFFFFFFFFFFFFFFFFFFFFFFFFFFFFFFFFFFFFFFFFFFFFFFFFFFFFFFFFFF7
:202A0000FFFFFFFFFFFFFFFFFFFFFFFFFFFFFFFFFFFFFFFFFFFFFFFFFFFFFFFFFFFFFFFFD6
:202A2000FFFFFFFFFFFFFFFFFFFFFFFFFFFFFFFFFFFFFFFFFFFFFFFFFFFFFFFFFFFFFFFFB6
:020000040800F2
:00000001FF
